:100000000C9434000C943E000C943E000C943E0082
:100010000C943E000C943E000C943E000C943E0068
:100020000C943E000C943E000C943E000C943E0058
:100030000C943E000C943E000C943E000C943E0048
:100040000C943E000C943E000C943E000C943E0038
:100050000C943E000C943E000C943E000C943E0028
:100060000C943E000C943E0011241FBECFEFD8E04C
:10007000DEBFCDBF0E94C4000C94B4020C940000FB
:10008000ECE7F0E0808180648083EAE7F0E0808143
:100090008768808308958770ECE7F0E09081892B72
:1000A0008083EAE7F0E080818064808380917A0039
:1000B00086FDFCCF809178009091790008956817B3
:1000C00018F0841718F003C0862F01C0842F90E029
:1000D000089561111CC046E96FEF0E945F00BC01EA
:1000E0007727072E000C880B990B0E94BB0120E09C
:1000F00030E046E153E40E941D012CE53FE842E870
:100100005FE30E9447020E948A01862F3BC0613054
:10011000E1F442E66FEF0E945F00BC017727072EF3
:10012000000C880B990B0E94BB0120E030E044ECEE
:1001300052E40E941D0120E93EE744E75FE30E948C
:1001400047020E948A01862F1DC06230D9F44FEA0F
:100150006FEF0E945F00BC017727072E000C880B11
:10016000990B0E94BB0120E030E04FE253E40E9473
:100170001D0120E930EE4EE35FE30E9447020E943A
:100180008A01862F90E0089587B1806187B984B194
:10019000806384B987B18F7D87B90E94400028B100
:1001A00081E090E002C0880F991F2A95E2F798B18C
:1001B000892B88B92FEF83ED90E321508040904048
:1001C000E1F700C0000085E00E944B00182F88B1C5
:1001D0008F7E88B985B1806185B92FEF83ED90E37B
:1001E000215080409040E1F700C0000085E00E946F
:1001F0004B00D82F85B18F7E85B985B1806285B9D6
:100200002FEF83ED90E3215080409040E1F700C054
:10021000000085E00E944B00C82F85B18F7D85B915
:1002200060E0812F0E94690061E08D2F0E946900CB
:1002300062E08C2F0E946900B2CF5058BB27AA27DA
:100240000E9435010C940D020E94FF0138F00E94BB
:10025000060220F039F49F3F19F426F40C94FC01B7
:100260000EF4E095E7FB0C94F601E92F0E941E02C4
:1002700058F3BA17620773078407950720F079F4DB
:10028000A6F50C9440020EF4E0950B2EBA2FA02D8B
:100290000B01B90190010C01CA01A0011124FF2733
:1002A000591B99F0593F50F4503E68F11A16F0402E
:1002B000A22F232F342F4427585FF3CF469537952D
:1002C0002795A795F0405395C9F77EF41F16BA0BF2
:1002D000620B730B840BBAF09150A1F0FF0FBB1FA0
:1002E000661F771F881FC2F70EC0BA0F621F731FE9
:1002F000841F48F4879577956795B795F7959E3F46
:1003000008F0B0CF9395880F08F09927EE0F9795D6
:10031000879508950E94260288F09F5798F0B92F7C
:100320009927B751B0F0E1F0660F771F881F991F2A
:100330001AF0BA95C9F714C0B13091F00E9440028A
:10034000B1E008950C944002672F782F8827B85F9A
:1003500039F0B93FCCF3869577956795B395D9F782
:100360003EF490958095709561957F4F8F4F9F4F8C
:100370000895E89409C097FB3EF490958095709598
:1003800061957F4F8F4F9F4F9923A9F0F92F96E9E1
:10039000BB279395F695879577956795B795F11156
:1003A000F8CFFAF4BB0F11F460FF1BC06F5F7F4FF3
:1003B0008F4F9F4F16C0882311F096E911C0772305
:1003C00021F09EE8872F762F05C0662371F096E80E
:1003D000862F70E060E02AF09A95660F771F881FDD
:1003E000DAF7880F9695879597F9089597F99F679B
:1003F00080E870E060E008959FEF80EC08950024AD
:100400000A941616170618060906089500240A9479
:1004100012161306140605060895092E0394000CFF
:1004200011F4882352F0BB0F40F4BF2B11F460FF8E
:1004300004C06F5F7F4F8F4F9F4F089557FD9058B7
:10044000440F551F59F05F3F71F04795880F97FB98
:10045000991F61F09F3F79F0879508951216130652
:100460001406551FF2CF4695F1DF08C01616170681
:100470001806991FF1CF86957105610508940895B6
:10048000E894BB2766277727CB0197F908950E9448
:100490005A020C940D020E94FF0138F00E940602DD
:1004A00020F0952311F00C94F6010C94FC0111241A
:1004B0000C9441020E941E0270F3959FC1F3950FA8
:1004C00050E0551F629FF001729FBB27F00DB11DD8
:1004D000639FAA27F00DB11DAA1F649F6627B00D68
:1004E000A11D661F829F2227B00DA11D621F739F51
:1004F000B00DA11D621F839FA00D611D221F749F5F
:100500003327A00D611D231F849F600D211D822FA5
:10051000762F6A2F11249F5750409AF0F1F08823CC
:100520004AF0EE0FFF1FBB1F661F771F881F9150F9
:100530005040A9F79E3F510580F00C94F6010C94B1
:1005400041025F3FE4F3983ED4F386957795679533
:10055000B795F795E7959F5FC1F7FE2B880F911D23
:0C0560009695879597F90895F894FFCFC1
:00000001FF
