:100000000C9434000C943E000C943E000C943E0082
:100010000C943E000C943E000C943E000C943E0068
:100020000C943E000C943E000C943E000C943E0058
:100030000C943E000C943E000C943E000C943E0048
:100040000C943E000C943E000C943E000C943E0038
:100050000C943E000C943E000C943E000C943E0028
:100060000C943E000C943E0011241FBECFEFD8E04C
:10007000DEBFCDBF0E945C000C947B000C9400009E
:10008000442359F021E030E002C0220F331F6A956B
:10009000E2F7FC013081232B20830895442359F09B
:1000A00021E030E002C0220F331F6A95E2F7FC0125
:1000B0003081232B2083089540E060E084E290E0CB
:1000C0000E94400041E060E085E290E00E944E0026
:1000D00085B1816085B92FEF89E698E12150804094
:1000E0009040E1F700C0000040E060E085E290E071
:0A00F0000E944E00FFCFF894FFCFEE
:00000001FF
