:100000000C9434000C9451000C9451000C94510049
:100010000C9451000C9451000C9451000C9451001C
:100020000C9451000C9451000C9451000C9451000C
:100030000C9451000C9451000C9451000C945100FC
:100040000C94B4030C9451000C940E040C94F00323
:100050000C9451000C9451000C9451000C945100DC
:100060000C9451000C94510011241FBECFEFD8E026
:10007000DEBFCDBF12E0A0E0B1E0ECE5FCE002C0E5
:1000800005900D92A838B107D9F723E0A8E8B2E0AF
:1000900001C01D92A030B207E1F70E9499050C94AF
:1000A0002C060C940000EF92FF921F93CF93DF93E6
:1000B00010E026C00E944E0288E391E00E943802C0
:1000C000C12FD0E07E01EE0CFF1CF701E050FF4F86
:1000D000808191810E94380221E030E041E050E0CF
:1000E00065E070E080E791E00E94A102C7018C0FFB
:1000F0009D1F880F991F84579D4F0E943F031F5FCC
:100100001330C0F20E944E0262E070E080E090E0A6
:100110000E945B028EE791E00E94380264E070E08A
:1001200081E090E00E945B028AE891E00E94380240
:100130002FEF83ED90E3215080409040E1F700C025
:100140000000DF91CF911F91FF90EF90089587B14C
:10015000807F87B98AB18C618AB988B18F6088B98C
:100160000895BC0120E030E026C0FB01E20FF31F40
:100170009081913379F48BB141E050E0F901EA527A
:10018000FE4F008002C0440F551F0A94E2F7482B2F
:100190004BB90FC09BB141E050E0F901EA52FE4F6C
:1001A000008002C0440F551F0A94E2F7409549238E
:1001B0004BB92F5F3F4F23303105BCF208950F93A9
:1001C0001F93CF93DF9311E653C08EEA91E00E9414
:1001D000B10086B1FE01E652FE4F008190E08095AD
:1001E0009095002E02C0959587950A94E2F780FFBE
:1001F00008C0FE01EE0FFF1FEC0FFD1FE653FE4F80
:10020000108182EB91E00E94B10086B190E0809570
:100210009095002E02C0959587950A94E2F780FF8D
:1002200008C0FE01EE0FFF1FEC0FFD1FE653FE4F4F
:10023000118186EB91E00E94B10086B190E080953B
:10024000909502C0959587950A95E2F780FF08C0C2
:10025000FE01EE0FFF1FEC0FFD1FE653FE4F128154
:10026000219602C0C0E0D0E0C430D1050CF4ADCF7F
:100270001136C1F3812FDF91CF911F910F91089516
:10028000CF930E944E0260E070E080E090E00E9418
:100290005B028AEB91E00E94380260E070E081E04E
:1002A00090E00E945B020E94DF00C82F0E94BF0105
:1002B0002FEF85EA9EE0215080409040E1F700C09A
:1002C0000000C33281F72FEF83ED90E3215080408F
:1002D0009040E1F700C00000CF91089545B1982FFC
:1002E0009073292F30E03595279535952795942FD4
:1002F000937F292B25B99BB1282F229526952695EA
:1003000023709C7F922B9BB995B19E7F95B995B137
:10031000926095B995E09A95F1F7000095B19D7FAF
:1003200095B9EFE1F3E03197F1F700C00000829555
:10033000807F45B1982F9073292F30E03595279510
:1003400035952795942F937F292B25B99BB18295BD
:100350008695869583709C7F892B8BB985B1826049
:1003600085B9F5E0FA95F1F7000085B18D7F85B983
:100370008FE39FE10197F1F700C00000089545B1B8
:10038000982F9073292F30E035952795359527952F
:10039000942F937F292B25B99BB1282F2295269541
:1003A000269523709C7F922B9BB995B1916095B94E
:1003B00095B1926095B995E09A95F1F7000095B1E5
:1003C0009D7F95B9EFE1F3E03197F1F700C00000B0
:1003D0008295807F45B1982F9073292F30E0359515
:1003E000279535952795942F937F292B25B99BB178
:1003F00082958695869583709C7F892B8BB985B174
:10040000826085B9F5E0FA95F1F7000085B18D7F3E
:1004100085B98FE39FE10197F1F700C000000895CF
:1004200084B18F6084B98AB183608AB984B18260F3
:1004300084B92FEF89EF90E0215080409040E1F7A0
:1004400000C0000082E00E946E0188E20E946E01FE
:100450008CE00E946E0186E00E946E0181E00E94A5
:100460006E018FE39FE10197F1F700C0000008954E
:100470000F931F93CF93DF938C01C0E0D0E003C0B4
:100480000E94BF012196F801EC0FFD1F80818111B0
:10049000F7CFDF91CF911F910F91089581E00E94D6
:1004A0006E018FE39FE10197F1F700C0000080E843
:1004B0000E946E0108950F931F93CF93DF93EC0179
:1004C0008B01892B19F480E80E946E01219719F4A1
:1004D00080EC0E946E01C0E0D0E004C084E10E9484
:1004E0006E012196C017D107CCF3DF91CF911F91F8
:1004F0000F9108950F931F93CF93DF938C0160E0CA
:1005000070E00E945B02C0E0D0E004C080E20E9484
:10051000BF012196C031D105CCF360E070E0C80185
:100520000E945B02DF91CF911F910F91089580E1AE
:100530000E946E0180E20E94BF0180E10E946E0174
:100540000895AF92BF92CF92DF92EF92FF920F93F6
:100550001F93CF93DF935C017B018A016901CA017C
:100560000E947A02C0E0D0E01DC0B601C8010E941E
:100570005B02C5010E9438022FEF89E698E1215005
:1005800080409040E1F700C00000C8010E947A025C
:100590002FEF89E698E1215080409040E1F700C0BC
:1005A00000002196CE15DF0504F3DF91CF911F9156
:1005B0000F91FF90EF90DF90CF90BF90AF90089594
:1005C0000E944E0265E070E080E090E00E945B02D5
:1005D0008EED91E00E94380267E070E081E090E0EB
:1005E0000E945B0285EE91E00E9438022FEF87EABD
:1005F00091E6215080409040E1F700C0000008954E
:1006000040E019C0242F30E0F901EE0FFF1FED5E2E
:10061000FE4F0190F081E02D5081D901A65FBE4FC1
:1006200081E090E00C9002C0880F991F0A94E2F7D5
:10063000852B80834F5F433028F387B18F7D87B947
:10064000ECE7F0E0808180648083EAE7F0E080817D
:100650008768808308958770ECE7F0E09081892BAC
:100660008083EAE7F0E080818064808380917A0073
:1006700086FDFCCF809178009091790008958F924B
:100680009F92AF92BF92CF92DF92EF92FF920F9321
:100690001F93CF93DF936C010E944E0260E070E0E5
:1006A00080E090E00E945B0288EE91E00E943802B8
:1006B00000E010E03FC07801EE0CFF1CC701835F33
:1006C0009E4F4C01DC01ED91FC912081C801865FB9
:1006D0009E4F5C01C1E0D0E0CE01D5010C9002C07C
:1006E000880F991F0A94E2F7822B80838EE20E9482
:1006F000BF01BFEFE7EAF1E6B150E040F040E1F7BB
:1007000000C00000EC0CFD1C85E00E942B03D7010B
:100710008D939C93D401ED91FC918081D5010C9037
:1007200002C0CC0FDD1F0A94E2F7C095C823C08336
:100730000F5F1F4F033011050CF4BDCFBFEFE9E68B
:10074000F8E1B150E040F040E1F700C00000DF9177
:10075000CF911F910F91FF90EF90DF90CF90BF90BE
:10076000AF909F908F9008951F920F920FB60F92A7
:1007700011242F933F935F936F937F938F939F9356
:10078000AF93BF93EF93FF932BB19091880230E426
:10079000939FC0011124922F9F73892B8BB9809155
:1007A000880290E0019663E070E00E940406809366
:1007B0008802E0918802F0E0E75EFE4F808188BD0C
:1007C000FF91EF91BF91AF919F918F917F916F9129
:1007D0005F913F912F910F900FBE0F901F90189532
:1007E0000F930FB7EF93FF93E091D602F091D802E9
:1007F000E395EF71EF1305C0F091C100FF7DF09319
:10080000C100E093D602F0E0E652FD4FE081E093B4
:10081000C600FF91EF910FBF0F9118950F930FB77F
:100820009F939091C600EF93FF93E091D902F091CE
:10083000D702E395EF71FE1731F0E093D902F0E0B3
:10084000EA54FD4F9083FF91EF919F910FBF0F915D
:1008500018950E944E0262E070E080E090E00E94F5
:100860005B028EE791E00E94380264E070E081E074
:1008700090E00E945B0280EF91E00E9438022FEF2F
:1008800087EA91E6215080409040E1F700C00000E7
:100890000E9453002FEF87EA91E62150804090405C
:1008A000E1F700C000000895CF930E944E0262E07D
:1008B00070E080E090E00E945B0282E592E00E949E
:1008C00038022FEF87EA91E6215080409040E1F70F
:1008D00000C000000E944E0260E070E080E090E006
:1008E0000E945B0288EF91E00E94380260E070E0B5
:1008F00081E090E00E945B0289E092E00E94380271
:10090000C1E649C00E94DF00C82F8A3251F42FEFA0
:1009100085EA9EE0215080409040E1F700C0000051
:100920003DC0813319F40E94290435C0823399F502
:100930000E944E0281E192E00E94380221E030E004
:1009400041E050E065E070E080E791E00E94A102A4
:100950008AEF92E00E943F030E944E0263E070E043
:1009600080E090E00E945B0288EE91E00E943802F5
:1009700062E070E081E090E00E945B028AE891E032
:100980000E9438022FEF87EA91E621508040904084
:10099000E1F700C00000C13609F4B4CFCA3209F053
:1009A00099CFCF910895CF92DF92EF92FF920F935C
:1009B0001F93CF930E944E0260E070E080E090E0D1
:1009C0000E945B0280E292E00E943802C12CD12C8E
:1009D0008DC081E090E00E947A02F601EE0FFF1FC9
:1009E000E45EFE4F808191810E943802E12CF12C5F
:1009F00000E010E00E94DF00C82F833279F42FEF6F
:100A000085EA9EE0215080409040E1F700C0000060
:100A10000F3F110509F00CF462C03CC08A32C1F4EA
:100A2000E114F10439F30E9497022FEF85EA9EE06A
:100A3000215080409040E1F700C00000C8016AE00A
:100A400070E00E9404068B0121E0E21AF108D2CF87
:100A50000E94BF018FEF95EA2EE081509040204028
:100A6000E1F700C00000C801880F991F9801220F0C
:100A7000331F220F331F220F331F8C01020F131F4E
:100A80002C2F30E020533109020F131F8FEFE81A8B
:100A9000F80AB0CF0E944E0262E070E080E090E081
:100AA0000E945B028DE292E00E9438029FEF27EAEB
:100AB00081E6915020408040E1F700C000000E9494
:100AC0004E0260E070E080E090E00E945B0280E215
:100AD00092E00E94380291E0C91AD10804C0F601E0
:100AE000E757FD4F00832FEFC21AD20A83E0C816E2
:100AF000D1040CF46ECF0E944E0265E070E080E0FD
:100B000090E00E945B028BE392E00E94380260E07A
:100B100070E081E090E00E945B028DE392E00E9431
:100B20003802CF911F910F91FF90EF90DF90CF90FF
:100B300008950E94A7000E9410020E9400030E94D4
:100B4000E0020E9440010E944E020E944E0260E0BC
:100B500070E080E090E00E945B028EE492E00E94F0
:100B6000380260E070E081E090E00E945B028FE577
:100B700092E00E9438020E94DF00C82F2FEF35EA72
:100B80008EE0215030408040E1F700C000000E941C
:100B90004E02C13311F40E945404C233B1F60E94D4
:100BA0004E0262E070E080E090E00E945B028DE621
:100BB00092E00E94380266E070E081E090E00E94DE
:100BC0005B0289E692E00E9438029FEF27EA31E655
:100BD000915020403040E1F700C000000E94D30453
:100BE0000E94DF009FEF25EA3EE091502040304018
:100BF000E1F700C00000833211F08A3289F78332B6
:100C000069F38A3259F7A1CF97FB072E16F40094A7
:100C100007D077FD09D00E94180607FC05D03EF4E6
:100C2000909581959F4F0895709561957F4F089598
:100C3000AA1BBB1B51E107C0AA1FBB1FA617B70702
:100C400010F0A61BB70B881F991F5A95A9F780951E
:0C0C50009095BC01CD010895F894FFCFF1
:100C5C00930197019D01A201A80104040528002518
:100C6C0000250027002400240000003279027E02B7
:100C7C00830243616C6962726174696F6E20737474
:100C8C0061727465640D0A00506C616365206F6E4F
:100C9C00200043616C6962726174696F6E206669D1
:100CAC006E69736865640D0A000D0A506C616365AA
:100CBC00206F6E206120636F6C6F7200200D0A0034
:100CCC002E2E2E57616974696E672E2E2E0043618D
:100CDC006C6962726174696F6E0066696E697368C3
:100CEC0065640052454400475245454E00424C5500
:100CFC004500574849544500424C41434B00303164
:100D0C00310031303100313130004B657970616424
:100D1C0020636865636B696E670031323334353636
:100D2C003738392A302302030400000102034C43F4
:100D3C0044206973004F4B0052656164696E670013
:100D4C007374617274656400312D63616C69622027
:100D5C002020322D72656164006D656E753D3C2DF1
:100D6C0000506C616365206F6E20636F6C6F720056
:100D7C00456E7465722076616C75657300496E768C
:100D8C00616C696420696E7075740040006D656EED
:100D9C00753D3C2D2020205247423D2D3E003120F8
:100DAC002D20636F6C6F722073656E736F720032DF
:100DBC00202D20676976656E205247420067697660
:100DCC00656E2076616C75650052203D20004720D1
:080DDC003D200042203D2000F3
:00000001FF
