:100000000C9434000C9451000C9451000C94510049
:100010000C9451000C9451000C9451000C9451001C
:100020000C9451000C9451000C9451000C9451000C
:100030000C9451000C9451000C9451000C945100FC
:100040000C9463030C9451000C94BD030C949F0317
:100050000C9451000C9451000C9451000C945100DC
:100060000C9451000C94510011241FBECFEFD8E026
:10007000DEBFCDBF12E0A0E0B1E0E2E2FCE002C0F2
:1000800005900D92A637B107D9F722E0A6E7B2E0B6
:1000900001C01D92AE3EB207E1F70E9448050C94E4
:1000A0000F060C940000EF92FF921F93CF93DF9303
:1000B00010E026C00E941D0280E491E00E94070229
:1000C000C12FD0E07E01EE0CFF1CF701E050FF4F86
:1000D000808191810E94070221E030E041E050E000
:1000E00065E070E088E791E00E947002C7018C0F24
:1000F0009D1F880F991F86589D4F0E94EE021F5F1B
:100100001330C0F20E941D0262E070E080E090E0D7
:100110000E942A0286E891E00E94070264E070E0F3
:1001200081E090E00E942A0282E991E00E940702A9
:100130002FEF83ED90E3215080409040E1F700C025
:100140000000DF91CF911F91FF90EF90089587B14C
:10015000807F87B98AB18C618AB988B18F6088B98C
:100160000895BC0120E030E026C0FB01E20FF31F40
:100170009081913379F48BB141E050E0F901E25381
:10018000FE4F008002C0440F551F0A94E2F7482B2F
:100190004BB90FC09BB141E050E0F901E253FE4F73
:1001A000008002C0440F551F0A94E2F7409549238E
:1001B0004BB92F5F3F4F23303105BCF208950F93A9
:1001C0001F93CF93DF9311E653C086EB91E00E941B
:1001D000B10086B1FE01EE52FE4F008190E08095A5
:1001E0009095002E02C0959587950A94E2F780FFBE
:1001F00008C0FE01EE0FFF1FEC0FFD1FEE53FE4F78
:1002000010818AEB91E00E94B10086B190E0809568
:100210009095002E02C0959587950A94E2F780FF8D
:1002200008C0FE01EE0FFF1FEC0FFD1FEE53FE4F47
:1002300011818EEB91E00E94B10086B190E0809533
:10024000909502C0959587950A95E2F780FF08C0C2
:10025000FE01EE0FFF1FEC0FFD1FEE53FE4F12814C
:10026000219602C0C0E0D0E0C430D1050CF4ADCF7F
:100270001136C1F3812FDF91CF911F910F91089516
:1002800045B1982F9073292F30E0359527953595F6
:100290002795942F937F292B25B99BB1282F229541
:1002A0002695269523709C7F922B9BB995B19E7FB6
:1002B00095B995B1926095B992E09A95F1F700C021
:1002C00095B19D7F95B9EFE8F1E03197F1F700C066
:1002D00000008295807F45B1982F9073292F30E0E0
:1002E0003595279535952795942F937F292B25B9FB
:1002F0009BB182958695869583709C7F892B8BB95F
:1003000085B1826085B9F2E0FA95F1F700C085B158
:100310008D7F85B98FE99FE00197F1F700C000005C
:10032000089545B1982F9073292F30E03595279582
:1003300035952795942F937F292B25B99BB1282F8D
:1003400022952695269523709C7F922B9BB995B17B
:10035000916095B995B1926095B992E09A95F1F74F
:1003600000C095B19D7F95B9EFE8F1E03197F1F7C5
:1003700000C000008295807F45B1982F9073292F8F
:1003800030E03595279535952795942F937F292B28
:1003900025B99BB182958695869583709C7F892B24
:1003A0008BB985B1826085B9F2E0FA95F1F700C0AA
:1003B00085B18D7F85B98FE99FE00197F1F700C086
:1003C0000000089584B18F6084B98AB183608AB9CE
:1003D00084B1826084B98FE39CE90197F1F700C092
:1003E000000082E00E94400188E20E9440018CE00F
:1003F0000E94400186E00E94400181E00E9440018D
:100400008FE99FE00197F1F700C0000008950F9376
:100410001F93CF93DF938C01C0E0D0E003C00E9414
:1004200091012196F801EC0FFD1F80818111F7CF1A
:10043000DF91CF911F910F91089581E00E944001BB
:100440008FE99FE00197F1F700C0000080E80E946B
:10045000400108950F931F93CF93DF93EC018B011D
:10046000892B19F480E80E944001219719F480EC4F
:100470000E944001C0E0D0E004C084E10E9440013D
:100480002196C017D107CCF3DF91CF911F910F9127
:1004900008950F931F93CF93DF938C0160E070E07A
:1004A0000E942A02C0E0D0E004C080E20E949101D4
:1004B0002196C031D105CCF360E070E0C8010E9404
:1004C0002A02DF91CF911F910F91089580E10E9440
:1004D000400180E20E94910180E10E944001089564
:1004E000AF92BF92CF92DF92EF92FF920F931F9342
:1004F000CF93DF935C017B018A016901CA010E94ED
:100500004902C0E0D0E01DC0B601C8010E942A0225
:10051000C5010E9407022FEF84E39CE02150804038
:100520009040E1F700C00000C8010E9449022FEF8F
:1005300084E39CE0215080409040E1F700C000003F
:100540002196CE15DF0504F3DF91CF911F910F9116
:10055000FF90EF90DF90CF90BF90AF90089540E074
:1005600019C0242F30E0F901EE0FFF1FED5EFE4FA2
:100570000190F081E02D5081D901A65FBE4F81E04E
:1005800090E00C9002C0880F991F0A94E2F7852B27
:1005900080834F5F433028F387B18F7D87B9ECE7C5
:1005A000F0E0808180648083EAE7F0E08081876802
:1005B000808308958770ECE7F0E09081892B808339
:1005C000EAE7F0E080818064808380917A0086FD94
:1005D000FCCF809178009091790008958F929F923E
:1005E000AF92BF92CF92DF92EF92FF920F931F9341
:1005F000CF93DF936C010E941D0260E070E080E009
:1006000090E00E942A0286ED91E00E94070200E03D
:1006100010E03FC07801EE0CFF1CC701835F9E4FC6
:100620004C01DC01ED91FC912081C801865F9E4F59
:100630005C01C1E0D0E0CE01D5010C9002C0880F72
:10064000991F0A94E2F7822B80838EE20E94910127
:10065000BFEFE7EAF1E6B150E040F040E1F700C05B
:100660000000EC0CFD1C85E00E94DA02D7018D939E
:100670009C93D401ED91FC918081D5010C9002C036
:10068000CC0FDD1F0A94E2F7C095C823C0830F5F2B
:100690001F4F033011050CF4BDCFBFEFE9E6F8E1C1
:1006A000B150E040F040E1F700C00000DF91CF9191
:1006B0001F910F91FF90EF90DF90CF90BF90AF9080
:1006C0009F908F9008951F920F920FB60F92112452
:1006D0002F933F935F936F937F938F939F93AF93EA
:1006E000BF93EF93FF932BB19091760230E4939FE9
:1006F000C0011124922F9F73892B8BB980917602B0
:1007000090E0019663E070E00E94E7058093760236
:10071000E0917602F0E0E75EFE4F808188BDFF91B8
:10072000EF91BF91AF919F918F917F916F915F9169
:100730003F912F910F900FBE0F901F9018950F9320
:100740000FB7EF93FF93E091C402F091C602E395D7
:10075000EF71EF1305C0F091C100FF7DF093C10070
:10076000E093C402F0E0E853FD4FE081E093C6005F
:10077000FF91EF910FBF0F9118950F930FB79F93B4
:100780009091C600EF93FF93E091C702F091C502EC
:10079000E395EF71FE1731F0E093C702F0E0EC55FE
:1007A000FD4F9083FF91EF919F910FBF0F9118958F
:1007B0000E941D0262E070E080E090E00E942A0248
:1007C00086E891E00E94070264E070E081E090E03A
:1007D0000E942A028EED91E00E9407022FEF87EA25
:1007E00091E6215080409040E1F700C000000E9457
:1007F00053002FEF87EA91E6215080409040E1F7C7
:1008000000C000000895CF930E941D0262E070E0D6
:1008100080E090E00E942A0280E492E00E940702B9
:100820002FEF87EA91E6215080409040E1F700C029
:1008300000000E941D0260E070E080E090E00E94F5
:100840002A0286EE91E00E94070260E070E081E0FB
:1008500090E00E942A0287EF91E00E940702C1E621
:1008600049C00E94DF00C82F8A3251F42FEF85EA79
:100870009EE0215080409040E1F700C000003DC064
:10088000813319F40E94D80335C0823399F50E9450
:100890001D028FEF91E00E94070221E030E041E06D
:1008A00050E065E070E088E791E00E94700288EE19
:1008B00092E00E94EE020E941D0263E070E080E080
:1008C00090E00E942A0286ED91E00E94070262E019
:1008D00070E081E090E00E942A0282E991E00E94AB
:1008E00007022FEF87EA91E6215080409040E1F720
:1008F00000C00000C13609F4B4CFCA3209F099CF64
:10090000CF910895CF92DF92EF92FF920F931F93B2
:10091000CF930E941D0260E070E080E090E00E94B2
:100920002A028EE092E00E940702C12CD12C8DC0D9
:1009300081E090E00E944902F601EE0FFF1FE45EA5
:10094000FE4F808191810E940702E12CF12C00E092
:1009500010E00E94DF00C82F833279F42FEF85EA80
:100960009EE0215080409040E1F700C000000F3F22
:10097000110509F00CF462C03CC08A32C1F4E114E4
:10098000F10439F30E9466022FEF85EA9EE02150C0
:1009900080409040E1F700C00000C8016AE070E0CC
:1009A0000E94E7058B0121E0E21AF108D2CF0E94F4
:1009B00091018FEF95EA2EE0815090402040E1F7C1
:1009C00000C00000C801880F991F9801220F331F33
:1009D000220F331F220F331F8C01020F131F2C2FE6
:1009E00030E020533109020F131F8FEFE81AF80A85
:1009F000B0CF0E941D0262E070E080E090E00E94B3
:100A00002A028BE192E00E9407029FEF27EA81E62B
:100A1000915020408040E1F700C000000E941D027C
:100A200060E070E080E090E00E942A028EE092E0B8
:100A30000E94070291E0C91AD10804C0F601E958E2
:100A4000FD4F00832FEFC21AD20A83E0C816D104EB
:100A50000CF46ECF0E941D0265E070E080E090E033
:100A60000E942A0289E292E00E94070260E070E0A0
:100A700081E090E00E942A028BE292E00E9407024D
:100A8000CF911F910F91FF90EF90DF90CF9008953D
:100A9000CF93DF93CDB7DEB728970FB6F894DEBFBC
:100AA0000FBECDBF0E94A7000E94E2010E94AF02CC
:100AB0000E941D0280E40E94400188E0E2E2F1E031
:100AC000DE01119601900D928A95E1F700E010E0A9
:100AD0000BC0E1E0F0E0EC0FFD1FE00FF11F8081A3
:100AE0000E9491010F5F1F4F0830110594F380ECB5
:100AF0000E94400180E00E9491012FEF33E284EFD9
:100B0000215030408040E1F700C000000E941D02EB
:100B10000E941D0260E070E080E090E00E942A02E6
:100B20008CE392E00E94070260E070E081E090E0D8
:100B30000E942A028DE492E00E9407020E94DF00D8
:100B4000182F9FEF25EA3EE0915020403040E1F71A
:100B500000C000000E941D02113311F40E94030422
:100B60001233B1F60E941D0262E070E080E090E076
:100B70000E942A028BE592E00E94070266E070E084
:100B800081E090E00E942A0287E592E00E9407023D
:100B90008FEF97EA21E6815090402040E1F700C0B6
:100BA00000000E9482040E94DF003FEF95EA2EE0E1
:100BB000315090402040E1F700C00000833211F036
:100BC0008A3289F7833269F38A3259F7A1CF97FBCA
:100BD000072E16F4009407D077FD09D00E94FB057C
:100BE00007FC05D03EF4909581959F4F0895709530
:100BF00061957F4F0895AA1BBB1B51E107C0AA1F37
:100C0000BB1FA617B70710F0A61BB70B881F991FAD
:100C10005A95A9F780959095BC01CD010895F89457
:020C2000FFCF04
:100C22009B019F01A501AA01B0010404052800252A
:100C320000250027002400240000003267026C0215
:100C42007102000A15110A04000043616C696272A4
:100C52006174696F6E20737461727465640D0A0049
:100C6200506C616365206F6E200043616C69627233
:100C72006174696F6E2066696E69736865640D0AD6
:100C8200000D0A506C616365206F6E206120636FF6
:100C92006C6F7200200D0A002E2E2E576169746946
:100CA2006E672E2E2E0043616C6962726174696FE9
:100CB2006E0066696E697368656400524544004758
:100CC2005245454E00424C5545005748495445004F
:100CD200424C41434B00303131003130310031312F
:100CE20030003132333435363738392A3023020373
:100CF20004000001020352656164696E6700737447
:100D0200617274656400312D63616C696220202018
:100D1200322D72656164006D656E753D3C2D00502B
:100D22006C616365206F6E20636F6C6F7200456E3D
:100D32007465722076616C75657300496E76616CBC
:100D4200696420696E7075740040006D656E753D52
:100D52003C2D2020205247423D2D3E0031202D20A7
:100D6200636F6C6F722073656E736F720032202D29
:100D720020676976656E2052474200676976656E24
:100D82002076616C75650052203D200047203D2091
:060D92000042203D20009C
:00000001FF
