:100000000C9434000C9451000C9451000C94510049
:100010000C9451000C9451000C9451000C9451001C
:100020000C9451000C9417030C9451000C9454033D
:100030000C9451000C9451000C9451000C945100FC
:100040000C9451000C9451000C9497030C94790378
:100050000C9451000C9451000C9451000C945100DC
:100060000C9451000C94510011241FBECFEFD8E026
:10007000DEBFCDBF12E0A0E0B1E0ECE3FBE002C0E8
:1000800005900D92A830B107D9F722E0A8E0B2E0C0
:1000900001C01D92AA35B207E1F70E940D050C942C
:1000A0009C050C94000087B1807F87B98AB18C6170
:1000B0008AB988B18F6088B90895BC0120E030E02A
:1000C00026C0FB01E20FF31F9081913379F48BB1CD
:1000D00041E050E0F901E05DFE4F008002C0440FB6
:1000E000551F0A94E2F7482B4BB90FC09BB141E072
:1000F00050E0F901E05DFE4F008002C0440F551F43
:100100000A94E2F7409549234BB92F5F3F4F2330C4
:100110003105BCF208950F931F93CF93DF9311E63F
:1001200053C088E191E00E945D0086B1FE01EC5C65
:10013000FE4F008190E080959095002E02C095952D
:1001400087950A94E2F780FF08C0FE01EE0FFF1FBB
:10015000EC0FFD1FEC5DFE4F10818CE191E00E94E1
:100160005D0086B190E080959095002E02C0959537
:1001700087950A94E2F780FF08C0FE01EE0FFF1F8B
:10018000EC0FFD1FEC5DFE4F118180E291E00E94BB
:100190005D0086B190E08095909502C09595879519
:1001A0000A95E2F780FF08C0FE01EE0FFF1FEC0F7B
:1001B000FD1FEC5DFE4F1281219602C0C0E0D0E031
:1001C000C430D1050CF4ADCF1136C1F3812FDF91CE
:1001D000CF911F910F91089545B1982F9073292FBA
:1001E00030E0359527953595279535952795942FAA
:1001F000997F292B25B99BB1282F229526952695E5
:1002000023709C7F922B9BB995B19E7F95B99BB132
:1002100090689BB992E09A95F1F700C09BB19F77E7
:100220009BB9EFE8F1E03197F1F700C0000082954B
:10023000807F45B1982F9073292F30E03595279511
:100240003595279535952795942F997F292B25B995
:100250009BB182958695869583709C7F892B8BB9FF
:100260008BB180688BB9F2E0FA95F1F700C08BB1E1
:100270008F778BB98FE99FE00197F1F700C00000FD
:10028000089545B1982F9073292F30E03595279523
:100290003595279535952795942F997F292B25B945
:1002A0009BB1282F22952695269523709C7F922B13
:1002B0009BB995B1916095B99BB190689BB992E05B
:1002C0009A95F1F700C09BB19F779BB9EFE8F1E0F9
:1002D0003197F1F700C000008295807F45B1982FDB
:1002E0009073292F30E035952795359527953595CD
:1002F0002795942F997F292B25B99BB182958695B7
:10030000869583709C7F892B8BB98BB180688BB964
:10031000F2E0FA95F1F700C08BB18F778BB98FE9D6
:100320009FE00197F1F700C00000089584B1876055
:1003300084B98AB183608AB98AB180688AB98FE347
:100340009CE90197F1F700C0000082E00E94EC00F8
:1003500088E20E94EC008CE00E94EC0086E00E94A3
:10036000EC0081E00E94EC008FE99FE00197F1F73B
:1003700000C0000008950F931F93CF93DF938C016B
:10038000C0E0D0E003C00E9441012196F801EC0FCB
:10039000FD1F80818111F7CFDF91CF911F910F91C8
:1003A000089581E00E94EC008FE99FE00197F1F74A
:1003B00000C0000080E80E94EC0008950F931F9396
:1003C000CF93DF93EC018B01892B19F480E80E9415
:1003D000EC00219719F480EC0E94EC00C0E0D0E022
:1003E00004C084E10E94EC002196C017D107CCF331
:1003F000DF91CF911F910F9108950F931F93CF938A
:10040000DF938C0160E070E00E94DE01C0E0D0E08C
:1004100004C080E20E9441012196C031D105CCF395
:1004200060E070E0C8010E94DE01DF91CF911F9172
:100430000F91089580E10E94EC0080E20E9441014A
:1004400080E10E94EC000895AF92BF92CF92DF92BC
:10045000EF92FF920F931F93CF93DF935C017B0189
:100460008A016901CA010E94FD01C0E0D0E01DC0FF
:10047000B601C8010E94DE01C5010E94BB012FEF39
:1004800084E39CE0215080409040E1F700C00000F0
:10049000C8010E94FD012FEF84E39CE021508040C1
:1004A0009040E1F700C000002196CE15DF0504F36F
:1004B000DF91CF911F910F91FF90EF90DF90CF9040
:1004C000BF90AF90089540E019C0242F30E0F901AB
:1004D000EE0FFF1FE75FFE4F0190F081E02D50818E
:1004E000D901A050BF4F81E090E00C9002C0880F6E
:1004F000991F0A94E2F7852B80834F5F433028F3DE
:1005000087B18F7D87B9ECE7F0E0808180648083DC
:10051000EAE7F0E080818768808308958770ECE7E0
:10052000F0E09081892B8083EAE7F0E080818064AD
:10053000808380917A0086FDFCCF80917800909135
:10054000790008958F929F92AF92BF92CF92DF92DF
:10055000EF92FF920F931F93CF93DF936C010E9452
:10056000D10160E070E080E090E00E94DE0188E36D
:1005700091E00E94BB0100E010E03FC07801EE0C6A
:10058000FF1CC7018D5F9E4F4C01DC01ED91FC917A
:100590002081C80180509F4F5C01C1E0D0E0CE01B6
:1005A000D5010C9002C0880F991F0A94E2F7822BA4
:1005B00080838EE20E944101BFEFE7EAF1E6B1508D
:1005C000E040F040E1F700C00000EC0CFD1C85E0CD
:1005D0000E948E02D7018D939C93D401ED91FC91E2
:1005E0008081D5010C9002C0CC0FDD1F0A94E2F788
:1005F000C095C823C0830F5F1F4F033011050CF453
:10060000BDCFBFEFE9E6F8E1B150E040F040E1F7DF
:1006100000C00000DF91CF911F910F91FF90EF90EC
:10062000DF90CF90BF90AF909F908F9008951F92D2
:100630000F920FB60F9211242F933F935F936F93F6
:100640007F938F939F93AF93BF93EF93FF932BB1C0
:100650009091080230E2939FC0011124922F9F795C
:10066000892B8BB98091080290E0019663E070E0DD
:100670000E94740580930802E0910802F0E0E15FB7
:10068000FE4F80818093B300FF91EF91BF91AF91B6
:100690009F918F917F916F915F913F912F910F90DB
:1006A0000FBE0F901F9018951F920F920FB60F92CA
:1006B00011248F939F93AF93BF93809109029091E0
:1006C0000A02A0910B02B0910C020A96A11DB11D65
:1006D0008093090290930A02A0930B02B0930C023C
:1006E000BF91AF919F918F910F900FBE0F901F9070
:1006F00018950F930FB7EF93FF93E0913002F091AD
:100700003202E395EF71EF1305C0F091C100FF7D58
:10071000F093C100E0933002F0E0EC5CFD4FE0812B
:10072000E093C600FF91EF910FBF0F9118950F93C3
:100730000FB79F939091C600EF93FF93E091330220
:10074000F0913102E395EF71FE1731F0E09333023F
:10075000F0E0E05FFD4F9083FF91EF919F910FBF1D
:100760000F911895CF930E94D10162E070E080E074
:1007700090E00E94DE0181ED91E00E94BB012FEF2D
:1007800087EA91E6215080409040E1F700C00000E8
:100790000E94D10160E070E080E090E00E94DE0104
:1007A00084E591E00E94BB0160E070E081E090E0B0
:1007B0000E94DE0185E691E00E94BB01C1E65FC0B8
:1007C0000E948B00C82F8A3251F42FEF85EA9EE0F9
:1007D000215080409040E1F700C0000053C08133B9
:1007E000C9F42FEF85EA9EE0215080409040E1F768
:1007F00000C000000E94D1018DE691E00E94BB0183
:100800002FEF87EA91E6215080409040E1F700C049
:10081000000035C0823399F50E94D10189E791E04B
:100820000E94BB0121E030E041E050E065E070E073
:1008300088E891E00E94240284E592E00E94A202EE
:100840000E94D10163E070E080E090E00E94DE0150
:1008500088E391E00E94BB0162E070E081E090E0FB
:100860000E94DE0186E991E00E94BB012FEF87EA3A
:1008700091E6215080409040E1F700C00000C13671
:1008800009F49ECFCA3209F083CFCF910895CF9259
:10089000DF92EF92FF920F931F93CF930E94D101AB
:1008A00060E070E080E090E00E94DE018FE991E07E
:1008B0000E94BB01C12CD12C8DC081E090E00E9430
:1008C000FD01F601EE0FFF1FEE5EFE4F808191816C
:1008D0000E94BB01E12CF12C00E010E00E948B0093
:1008E000C82F833279F42FEF85EA9EE021508040B3
:1008F0009040E1F700C000000F3F110509F00CF433
:1009000062C03CC08A32C1F4E114F10439F30E94A0
:100910001A022FEF85EA9EE0215080409040E1F7D7
:1009200000C00000C8016AE070E00E9474058B01FD
:1009300021E0E21AF108D2CF0E9441018FEF95EA3F
:100940002EE0815090402040E1F700C00000C80137
:10095000880F991F9801220F331F220F331F220F78
:10096000331F8C01020F131F2C2F30E0205331094D
:10097000020F131F8FEFE81AF80AB0CF0E94D101BF
:1009800062E070E080E090E00E94DE018CEA91E09D
:100990000E94BB019FEF27EA81E6915020408040F2
:1009A000E1F700C000000E94D10160E070E080E04B
:1009B00090E00E94DE018FE991E00E94BB0191E08E
:1009C000C91AD10804C0F601E35FFD4F00832FEF81
:1009D000C21AD20A83E0C816D1040CF46ECF0E946A
:1009E000D10165E070E080E090E00E94DE018AEBDA
:1009F00091E00E94BB0160E070E081E090E00E9425
:100A0000DE018CEB91E00E94BB01CF911F910F9111
:100A1000FF90EF90DF90CF9008950E9453000E94C6
:100A200096010E9463020E94D1010E94D10160E000
:100A300070E080E090E00E94DE018DEC91E00E9489
:100A4000BB0160E070E081E090E00E94DE018EED8D
:100A500091E00E94BB010E948B00C82F2FEF35EA66
:100A60008EE0215030408040E1F700C000000E943D
:100A7000D101C13311F40E94B203C233B1F60E9416
:100A8000D10162E070E080E090E00E94DE018CEE37
:100A900091E00E94BB0166E070E081E090E00E947E
:100AA000DE0188EE91E00E94BB019FEF27EA31E66C
:100AB000915020403040E1F700C000000E94470400
:100AC0000E948B009FEF25EA3EE09150204030408D
:100AD000E1F700C00000833211F08A3289F78332D7
:100AE00069F38A3259F7A1CF97FB072E16F40094C9
:100AF00007D077FD09D00E94880507FC05D03EF499
:100B0000909581959F4F0895709561957F4F0895B9
:100B1000AA1BBB1B51E107C0AA1FBB1FA617B70723
:100B200010F0A61BB70B881F991F5A95A9F780953F
:0C0B30009095BC01CD010895F894FFCF12
:100B3C0004040528002500250027002400240000BB
:100B4C000032F801FD010202303131003130310048
:100B5C00313130003132333435363738392A30239D
:100B6C00020304000001020352656164696E6700B0
:100B7C0043616C6962726174696F6E007374617247
:100B8C0074656400312D63616C6962202020322D04
:100B9C0072656164006D656E753D3C2D0063616C22
:100BAC006962726174696F6E00506C616365206F6D
:100BBC006E20636F6C6F72002E2E2E5761697469F4
:100BCC006E672E2E2E0066696E697368656400452B
:100BDC006E7465722076616C75657300496E766112
:100BEC006C696420696E7075740040006D656E757B
:100BFC003D3C2D2020205247423D2D3E0031202DE2
:100C0C0020636F6C6F722073656E736F720032208D
:100C1C002D20676976656E205247420067697665BC
:100C2C006E2076616C75650052203D200047203D9A
:080C3C00200042203D200000D1
:00000001FF
