:100000000C9434000C9451000C9451000C94510049
:100010000C9451000C9451000C9451000C9451001C
:100020000C9451000C9454030C9451000C949103C3
:100030000C9451000C9451000C9451000C945100FC
:100040000C9451000C9451000C94D4030C94B603FE
:100050000C9451000C9451000C9451000C945100DC
:100060000C9451000C94510011241FBECFEFD8E026
:10007000DEBFCDBF12E0A0E0B1E0E6E7FBE002C0EA
:1000800005900D92A835B107D9F722E0A8E5B2E0B6
:1000900001C01D92AE3CB207E1F70E942A050C9404
:1000A000B9050C940000EF92FF921F93CF93DF935A
:1000B00010E026C00E94250288E391E00E940F0212
:1000C000C12FD0E07E01EE0CFF1CF701E050FF4F86
:1000D000808191810E940F0221E030E041E050E0F8
:1000E00065E070E080E791E00E947802C7018C0F24
:1000F0009D1F880F991F805A9D4F0E94F6021F5F17
:100100001330C0F20E94250262E070E080E090E0CF
:100110000E9432028EE791E00E940F0264E070E0DC
:1001200081E090E00E9432028AE891E00E940F0292
:100130002FEF83ED90E3215080409040E1F700C025
:100140000000DF91CF911F91FF90EF90089587B14C
:10015000807F87B98AB18C618AB988B18F6088B98C
:100160000895BC0120E030E026C0FB01E20FF31F40
:100170009081913379F48BB141E050E0F901EA5379
:10018000FE4F008002C0440F551F0A94E2F7482B2F
:100190004BB90FC09BB141E050E0F901EA53FE4F6B
:1001A000008002C0440F551F0A94E2F7409549238E
:1001B0004BB92F5F3F4F23303105BCF208950F93A9
:1001C0001F93CF93DF9311E653C08EEA91E00E9414
:1001D000B10086B1FE01E653FE4F008190E08095AC
:1001E0009095002E02C0959587950A94E2F780FFBE
:1001F00008C0FE01EE0FFF1FEC0FFD1FE654FE4F7F
:10020000108182EB91E00E94B10086B190E0809570
:100210009095002E02C0959587950A94E2F780FF8D
:1002200008C0FE01EE0FFF1FEC0FFD1FE654FE4F4E
:10023000118186EB91E00E94B10086B190E080953B
:10024000909502C0959587950A95E2F780FF08C0C2
:10025000FE01EE0FFF1FEC0FFD1FE654FE4F128153
:10026000219602C0C0E0D0E0C430D1050CF4ADCF7F
:100270001136C1F3812FDF91CF911F910F91089516
:1002800045B1982F9073292F30E0359527953595F6
:10029000279535952795942F997F292B25B99BB1C3
:1002A000282F22952695269523709C7F922B9BB90B
:1002B00095B19E7F95B99BB190689BB992E09A9554
:1002C000F1F700C09BB19F779BB9EFE8F1E0319760
:1002D000F1F700C000008295807F45B1982F9073A0
:1002E000292F30E035952795359527953595279514
:1002F000942F997F292B25B99BB182958695869558
:1003000083709C7F892B8BB98BB180688BB9F2E0AD
:10031000FA95F1F700C08BB18F778BB98FE99FE029
:100320000197F1F700C00000089545B1982F907330
:10033000292F30E0359527953595279535952795C3
:10034000942F997F292B25B99BB1282F229526958B
:10035000269523709C7F922B9BB995B1916095B99E
:100360009BB190689BB992E09A95F1F700C09BB160
:100370009F779BB9EFE8F1E03197F1F700C00000FB
:100380008295807F45B1982F9073292F30E0359565
:1003900027953595279535952795942F997F292B66
:1003A00025B99BB182958695869583709C7F892B14
:1003B0008BB98BB180688BB9F2E0FA95F1F700C088
:1003C0008BB18F778BB98FE99FE00197F1F700C070
:1003D0000000089584B1876084B98AB183608AB9C6
:1003E0008AB180688AB98FE39CE90197F1F700C070
:1003F000000082E00E94400188E20E9440018CE0FF
:100400000E94400186E00E94400181E00E9440017C
:100410008FE99FE00197F1F700C0000008950F9366
:100420001F93CF93DF938C01C0E0D0E003C00E9404
:1004300095012196F801EC0FFD1F80818111F7CF06
:10044000DF91CF911F910F91089581E00E944001AB
:100450008FE99FE00197F1F700C0000080E80E945B
:10046000400108950F931F93CF93DF93EC018B010D
:10047000892B19F480E80E944001219719F480EC3F
:100480000E944001C0E0D0E004C084E10E9440012D
:100490002196C017D107CCF3DF91CF911F910F9117
:1004A00008950F931F93CF93DF938C0160E070E06A
:1004B0000E943202C0E0D0E004C080E20E949501B8
:1004C0002196C031D105CCF360E070E0C8010E94F4
:1004D0003202DF91CF911F910F91089580E10E9428
:1004E000400180E20E94950180E10E944001089550
:1004F000AF92BF92CF92DF92EF92FF920F931F9332
:10050000CF93DF935C017B018A016901CA010E94DC
:100510005102C0E0D0E01DC0B601C8010E94320205
:10052000C5010E940F022FEF84E39CE02150804020
:100530009040E1F700C00000C8010E9451022FEF77
:1005400084E39CE0215080409040E1F700C000002F
:100550002196CE15DF0504F3DF91CF911F910F9106
:10056000FF90EF90DF90CF90BF90AF90089540E064
:1005700019C0242F30E0F901EE0FFF1FED5EFE4F92
:100580000190F081E02D5081D901A65FBE4F81E03E
:1005900090E00C9002C0880F991F0A94E2F7852B17
:1005A00080834F5F433028F387B18F7D87B9ECE7B5
:1005B000F0E0808180648083EAE7F0E080818768F2
:1005C000808308958770ECE7F0E09081892B808329
:1005D000EAE7F0E080818064808380917A0086FD84
:1005E000FCCF809178009091790008958F929F922E
:1005F000AF92BF92CF92DF92EF92FF920F931F9331
:10060000CF93DF936C0100E010E03DC09801220F12
:10061000331FC901835F9E4F4C01DC01ED91FC91BA
:100620004081C801865F9E4F5C01C1E0D0E0CE01F1
:10063000D5010C9002C0880F991F0A94E2F7842B11
:100640008083BFEFE7EAF1E6B150E040F040E1F728
:1006500000C000007601E20EF31E85E00E94E20277
:10066000D7018D939C93D401ED91FC918081D501AC
:100670000C9002C0CC0FDD1F0A94E2F7C095C8238E
:10068000C0830F5F1F4F033011050CF4BFCFDF9104
:10069000CF911F910F91FF90EF90DF90CF90BF907F
:1006A000AF909F908F9008951F920F920FB60F9268
:1006B00011242F933F935F936F937F938F939F9317
:1006C000AF93BF93EF93FF932BB19091580230E219
:1006D000939FC0011124922F9F79892B8BB9809110
:1006E000580290E0019663E070E00E9491058093CB
:1006F0005802E0915802F0E0E75EFE4F808180935F
:10070000B300FF91EF91BF91AF919F918F917F9136
:100710006F915F913F912F910F900FBE0F901F909F
:1007200018951F920F920FB60F9211248F939F93DB
:10073000AF93BF938091590290915A02A0915B02AE
:10074000B0915C020A96A11DB11D8093590290934D
:100750005A02A0935B02B0935C02BF91AF919F914C
:100760008F910F900FBE0F901F9018950F930FB79A
:10077000EF93FF93E091AA02F091AC02E395EF7141
:10078000EF1305C0F091C100FF7DF093C100E0932D
:10079000AA02F0E0E255FD4FE081E093C600FF9130
:1007A000EF910FBF0F9118950F930FB79F939091F3
:1007B000C600EF93FF93E091AD02F091AB02E39599
:1007C000EF71FE1731F0E093AD02F0E0E657FD4F18
:1007D0009083FF91EF919F910FBF0F9118950E9409
:1007E000250262E070E080E090E00E9432028EE735
:1007F00091E00E940F0264E070E081E090E00E94CE
:1008000032028EEC91E00E940F022FEF83ED90E315
:10081000215080409040E1F700C000000E9453004A
:1008200008950E94250262E070E080E090E00E945E
:10083000320281E292E00E940F022FEF87EA91E6F6
:10084000215080409040E1F700C000000E94250246
:1008500060E070E080E090E00E94320286ED91E07E
:100860000E940F0260E070E081E090E00E9432029E
:1008700087EE91E00E940F020E94DF008A3251F45D
:100880002FEF85EA9EE0215080409040E1F700C0C4
:1008900000000895813361F42FEF85EA9EE0215036
:1008A00080409040E1F700C000000E94EF03E4CFD9
:1008B000823311F72FEF85EA9EE02150804090406F
:1008C000E1F700C00000D8CFCF92DF92EF92FF9205
:1008D0000F931F93CF930E94250260E070E080E0A9
:1008E00090E00E9432028FEE91E00E940F02C12C34
:1008F000D12C8DC081E090E00E945102F601EE0FF4
:10090000FF1FE45EFE4F808191810E940F02E12C67
:10091000F12C00E010E00E94DF00C82F833279F450
:100920002FEF85EA9EE0215080409040E1F700C023
:1009300000000F3F110509F00CF462C03CC08A3280
:10094000C1F4E114F10439F30E946E022FEF85EA3D
:100950009EE0215080409040E1F700C00000C801B7
:100960006AE070E00E9491058B0121E0E21AF10833
:10097000D2CF0E9495018FEF95EA2EE081509040F2
:100980002040E1F700C00000C801880F991F9801BE
:10099000220F331F220F331F220F331F8C01020F30
:1009A000131F2C2F30E020533109020F131F8FEF3C
:1009B000E81AF80AB0CF0E94250262E070E080E0F9
:1009C00090E00E9432028CEF91E00E940F029FEFB4
:1009D00027EA81E6915020408040E1F700C0000006
:1009E0000E94250260E070E080E090E00E94320208
:1009F0008FEE91E00E940F0291E0C91AD10804C065
:100A0000F601E35AFD4F00832FEFC21AD20A83E0AA
:100A1000C816D1040CF46ECF0E94250265E070E088
:100A200080E090E00E9432028AE092E00E940F0291
:100A300060E070E081E090E00E9432028CE092E0A1
:100A40000E940F02CF911F910F91FF90EF90DF90C6
:100A5000CF9008950E94A7000E94EA010E94B70269
:100A60000E9425020E94250260E070E080E090E094
:100A70000E9432028DE192E00E940F0260E070E07D
:100A800081E090E00E9432028EE292E00E940F022A
:100A90000E94DF00C82F2FEF35EA8EE02150304052
:100AA0008040E1F700C000000E942502C13311F42C
:100AB0000E941104C233B1F60E94250262E070E088
:100AC00080E090E00E9432028CE392E00E940F02EC
:100AD00066E070E081E090E00E94320288E392E0FC
:100AE0000E940F029FEF27EA31E6915020403040EC
:100AF000E1F700C000000E9464040E94DF009FEF45
:100B000025EA3EE0915020403040E1F700C000006F
:100B1000833211F08A3289F7833269F38A3259F7C6
:100B2000A1CF97FB072E16F4009407D077FD09D0CC
:100B30000E94A50507FC05D03EF4909581959F4F36
:100B40000895709561957F4F0895AA1BBB1B51E1D5
:100B500007C0AA1FBB1FA617B70710F0A61BB70B2D
:100B6000881F991F5A95A9F780959095BC01CD01D2
:060B70000895F894FFCF88
:100B7600930197019D01A201A801040405280025FF
:100B860000250027002400240000003248024D0200
:100B9600520243616C6962726174696F6E2073748C
:100BA60061727465640D0A00506C616365206F6E36
:100BB600200043616C6962726174696F6E206669B8
:100BC6006E69736865640D0A000D0A506C61636591
:100BD600206F6E206120636F6C6F7200200D0A001B
:100BE6002E2E2E57616974696E672E2E2E00436174
:100BF6006C6962726174696F6E0066696E697368AA
:100C060065640052454400475245454E00424C55E6
:100C16004500574849544500424C41434B0030314A
:100C26003100313031003131300031323334353634
:100C36003738392A30230203040000010203737493
:100C4600617274656400312D63616C6962202020D5
:100C5600322D72656164006D656E753D3C2D0045F3
:100C66006E7465722076616C75657300496E766187
:100C76006C696420696E7075740040006D656E75F0
:100C86003D3C2D2020205247423D2D3E0031202D57
:100C960020636F6C6F722073656E736F7200322003
:100CA6002D20676976656E20524742006769766532
:100CB6006E2076616C75650052203D200047203D10
:080CC600200042203D20000047
:00000001FF
