:100000000C9434000C9451000C9451000C94510049
:100010000C9451000C9451000C9451000C9451001C
:100020000C9451000C944F020C9451000C948C02CF
:100030000C9451000C9451000C9451000C945100FC
:100040000C9451000C9451000C94CF020C94B1020A
:100050000C9451000C9451000C9451000C945100DC
:100060000C9451000C94510011241FBECFEFD8E026
:10007000DEBFCDBF11E0A0E0B1E0E6E5F9E002C0EF
:1000800005900D92A43DB107D9F722E0A4EDB1E0AF
:1000900001C01D92A032B207E1F70E941A040C942D
:1000A000A9040C94000087B1807F87B98AB18C6164
:1000B0008AB988B18F6088B90895BC0120E030E02A
:1000C00026C0FB01E20FF31F9081913379F48BB1CD
:1000D00041E050E0F901E65DFE4F008002C0440FB0
:1000E000551F0A94E2F7482B4BB90FC09BB141E072
:1000F00050E0F901E65DFE4F008002C0440F551F3D
:100100000A94E2F7409549234BB92F5F3F4F2330C4
:100110003105BCF208950F931F93CF93DF9311E63F
:1001200053C082E191E00E945D0086B1FE01E25D74
:10013000FE4F008190E080959095002E02C095952D
:1001400087950A94E2F780FF08C0FE01EE0FFF1FBB
:10015000EC0FFD1FE25EFE4F108186E191E00E94F0
:100160005D0086B190E080959095002E02C0959537
:1001700087950A94E2F780FF08C0FE01EE0FFF1F8B
:10018000EC0FFD1FE25EFE4F11818AE191E00E94BB
:100190005D0086B190E08095909502C09595879519
:1001A0000A95E2F780FF08C0FE01EE0FFF1FEC0F7B
:1001B000FD1FE25EFE4F1281219602C0C0E0D0E03A
:1001C000C430D1050CF4ADCF1136C1F3812FDF91CE
:1001D000CF911F910F91089545B1982F9073292FBA
:1001E00030E0359527953595279535952795942FAA
:1001F000997F292B25B99BB1282F229526952695E5
:1002000023709C7F922B9BB995B19E7F95B99BB132
:1002100090689BB992E09A95F1F700C09BB19F77E7
:100220009BB9EFE8F1E03197F1F700C0000082954B
:10023000807F45B1982F9073292F30E03595279511
:100240003595279535952795942F997F292B25B995
:100250009BB182958695869583709C7F892B8BB9FF
:100260008BB180688BB9F2E0FA95F1F700C08BB1E1
:100270008F778BB98FE99FE00197F1F700C00000FD
:10028000089545B1982F9073292F30E03595279523
:100290003595279535952795942F997F292B25B945
:1002A0009BB1282F22952695269523709C7F922B13
:1002B0009BB995B1916095B99BB190689BB992E05B
:1002C0009A95F1F700C09BB19F779BB9EFE8F1E0F9
:1002D0003197F1F700C000008295807F45B1982FDB
:1002E0009073292F30E035952795359527953595CD
:1002F0002795942F997F292B25B99BB182958695B7
:10030000869583709C7F892B8BB98BB180688BB964
:10031000F2E0FA95F1F700C08BB18F778BB98FE9D6
:100320009FE00197F1F700C00000089584B1876055
:1003300084B98AB183608AB98AB180688AB98FE347
:100340009CE90197F1F700C0000082E00E94EC00F8
:1003500088E20E94EC008CE00E94EC0086E00E94A3
:10036000EC0081E00E94EC008FE99FE00197F1F73B
:1003700000C0000008950F931F93CF93DF938C016B
:10038000C0E0D0E003C00E9441012196F801EC0FCB
:10039000FD1F80818111F7CFDF91CF911F910F91C8
:1003A000089581E00E94EC008FE99FE00197F1F74A
:1003B00000C0000080E80E94EC0008950F931F9396
:1003C000CF93DF93EC018B01892B19F480E80E9415
:1003D000EC00219719F480EC0E94EC00C0E0D0E022
:1003E00004C084E10E94EC002196C017D107CCF331
:1003F000DF91CF911F910F9108950F931F93CF938A
:10040000DF938C0160E070E00E94DE01C0E0D0E08C
:1004100004C080E20E9441012196C031D105CCF395
:1004200060E070E0C8010E94DE01DF91CF911F9172
:100430000F91089580E10E94EC0080E20E9441014A
:1004400080E10E94EC00089540E019C0242F30E0C4
:10045000F901EE0FFF1FED5FFE4F0190F081E02DDF
:100460005081D901A050BF4F81E090E00C9002C0B4
:10047000880F991F0A94E2F7852B80834F5F4330E2
:1004800028F387B18F7D87B9ECE7F0E08081806445
:100490008083EAE7F0E080818768808308951F9277
:1004A0000F920FB60F9211242F933F935F936F9388
:1004B0007F938F939F93AF93BF93EF93FF932BB152
:1004C0009091D40130E2939FC0011124922F9F7923
:1004D000892B8BB98091D40190E0019663E070E0A4
:1004E0000E9481048093D401E091D401F0E0E75FA1
:1004F000FE4F80818093B300FF91EF91BF91AF9148
:100500009F918F917F916F915F913F912F910F906C
:100510000FBE0F901F9018951F920F920FB60F925B
:1005200011248F939F93AF93BF938091D5019091A6
:10053000D601A091D701B091D8010A96A11DB11D95
:100540008093D5019093D601A093D701B093D801A1
:10055000BF91AF919F918F910F900FBE0F901F9001
:1005600018950F930FB7EF93FF93E091FC01F09173
:10057000FE01E395EF71EF1305C0F091C100FF7D1F
:10058000F093C100E093FC01F0E0E050FE4FE08109
:10059000E093C600FF91EF910FBF0F9118950F9355
:1005A0000FB79F939091C600EF93FF93E091FF01E7
:1005B000F091FD01E395EF71FE1731F0E093FF013B
:1005C000F0E0E452FE4F9083FF91EF919F910FBFB7
:1005D0000F911895CF930E94D10162E070E080E006
:1005E00090E00E94DE018DE991E00E94BB012FEFB7
:1005F00087EA91E6215080409040E1F700C000007A
:100600000E94D10160E070E080E090E00E94DE0195
:1006100082E391E00E94BB0160E070E081E090E045
:100620000E94DE0183E491E00E94BB01C1E635C077
:100630000E948B00C82F8A3251F42FEF85EA9EE08A
:10064000215080409040E1F700C0000028C0813375
:10065000C9F42FEF85EA9EE0215080409040E1F7F9
:1006600000C000000E94D1018BE491E00E94BB0118
:100670002FEF87EA91E6215080409040E1F700C0DB
:1006800000000BC0823349F42FEF85EA9EE0215031
:1006900080409040E1F700C00000C13649F2CA3204
:1006A00009F0AECFCF910895CF92DF92EF92FF92F3
:1006B0000F931F93CF930E94D10160E070E080E020
:1006C00090E00E94DE018BE691E00E94BB01C12C0C
:1006D000D12C8DC081E090E00E94FD01F601EE0F6B
:1006E000FF1FE45FFE4F808191810E94BB01E12CDE
:1006F000F12C00E010E00E948B00C82F833279F4C7
:100700002FEF85EA9EE0215080409040E1F700C045
:1007100000000F3F110509F00CF462C03CC08A32A2
:10072000C1F4E114F10439F30E941A022FEF85EAB3
:100730009EE0215080409040E1F700C00000C801D9
:100740006AE070E00E9481048B0121E0E21AF10866
:10075000D2CF0E9441018FEF95EA2EE08150904068
:100760002040E1F700C00000C801880F991F9801E0
:10077000220F331F220F331F220F331F8C01020F52
:10078000131F2C2F30E020533109020F131F8FEF5E
:10079000E81AF80AB0CF0E94D10162E070E080E070
:1007A00090E00E94DE0188E791E00E94BB019FEF8C
:1007B00027EA81E6915020408040E1F700C0000028
:1007C0000E94D10160E070E080E090E00E94DE01D4
:1007D0008BE691E00E94BB0191E0C91AD10804C0E8
:1007E000F601E752FE4F00832FEFC21AD20A83E0D0
:1007F000C816D1040CF46ECF0E94D10165E070E000
:1008000080E090E00E94DE0186E891E00E94BB015A
:1008100060E070E081E090E00E94DE0188E891E015
:100820000E94BB01CF911F910F91FF90EF90DF903D
:10083000CF9008950E9453000E9496010E942402C6
:100840000E94D1010E94D10160E070E080E090E060
:100850000E94DE0189E991E00E94BB0160E070E046
:1008600081E090E00E94DE018AEA91E00E94BB01F3
:100870000E948B00C82F2FEF35EA8EE021503040C8
:100880008040E1F700C000000E94D101C13311F4A3
:100890000E94EA02C233B1F60E94D10162E070E028
:1008A00080E090E00E94DE0188EB91E00E94BB01B5
:1008B00066E070E081E090E00E94DE0184EB91E070
:1008C0000E94BB019FEF27EA31E691502040304063
:1008D000E1F700C000000E9454030E948B009FEFCC
:1008E00025EA3EE0915020403040E1F700C0000092
:1008F000833211F08A3289F7833269F38A3259F7E9
:10090000A1CF97FB072E16F4009407D077FD09D0EE
:100910000E94950407FC05D03EF4909581959F4F69
:100920000895709561957F4F0895AA1BBB1B51E1F7
:1009300007C0AA1FBB1FA617B70710F0A61BB70B4F
:10094000881F991F5A95A9F780959095BC01CD01F4
:060950000895F894FFCFAA
:10095600040405270024002400000032C401C90154
:10096600CE01303131003130310031313000313299
:10097600333435363738392A302302030400000170
:100986000203312D63616C6962202020322D72656D
:100996006164006D656E753D3C2D0063616C696236
:1009A600726174696F6E0043616C69627261746929
:1009B6006F6E007374617274656400456E7465725F
:1009C6002076616C75657300496E76616C6964208A
:1009D600696E7075740040006D656E753D3C2D2026
:1009E60020205247423D2D3E0031202D20636F6C62
:1009F6006F722073656E736F720032202D206769E7
:100A060076656E2052474200676976656E2076618C
:100A16006C75650052203D200047203D2000422095
:040A26003D2000006F
:00000001FF
