:100000000C9434000C9451000C9451000C94510049
:100010000C9451000C9451000C9451000C9451001C
:100020000C9451000C94ED010C9451000C942A0294
:100030000C9451000C9451000C9451000C945100FC
:100040000C9451000C9451000C946D020C944F02CE
:100050000C9451000C9451000C9451000C945100DC
:100060000C9451000C94510011241FBECFEFD8E026
:10007000DEBFCDBF11E0A0E0B1E0EEEAF5E002C0E6
:1000800005900D92AC3EB107D9F722E0ACEEB1E09D
:1000900001C01D92A334B207E1F70E9488020C94BC
:1000A000D5020C940000CF93DF93CDB7DEB7E8976D
:1000B0000FB6F894DEBF0FBECDBF28E3E3E0F1E05A
:1000C000DE01119601900D922A95E1F70197FC014E
:1000D000EE0FFF1F81E090E08C0F9D1FE80FF91FCE
:1000E00080819181E8960FB6F894DEBF0FBECDBF38
:1000F000DF91CF910895CF92DF92EF92FF920F930D
:100100001F93CF93DF936C0100E010E05EC0780195
:10011000EE0CFF1CF601EE0DFF1D808191810E9407
:100120005300EC01F701EF50FE4F918380830430C0
:100130001105B4F48981823411F484B184B98981C0
:10014000833441F487B187B960E070E085E290E0E4
:100150000E94E20189818434B1F58AB18AB933C041
:100160008981823471F444B12A8130E0205331090D
:1001700081E090E002C0880F991F2A95E2F7842B56
:1001800084B98981833471F447B12A8130E02053E6
:10019000310981E090E002C0880F991F2A95E2F7AB
:1001A000842B87B98981843471F44AB12A8130E083
:1001B0002053310981E090E002C0880F991F2A95F1
:1001C000E2F7842B8AB90F5F1F4F073011050CF43B
:1001D0009ECF80E090E0DF91CF911F910F91FF9033
:1001E000EF90DF90CF90089545B1982F9073292F0D
:1001F00030E0359527953595279535952795942F9A
:10020000997F292B25B99BB1282F229526952695D4
:1002100023709C7F922B9BB995B19E7F95B99BB122
:1002200090689BB992E09A95F1F700C09BB19F77D7
:100230009BB9EFE8F1E03197F1F700C0000082953B
:10024000807F45B1982F9073292F30E03595279501
:100250003595279535952795942F997F292B25B985
:100260009BB182958695869583709C7F892B8BB9EF
:100270008BB180688BB9F2E0FA95F1F700C08BB1D1
:100280008F778BB98FE99FE00197F1F700C00000ED
:10029000089545B1982F9073292F30E03595279513
:1002A0003595279535952795942F997F292B25B935
:1002B0009BB1282F22952695269523709C7F922B03
:1002C0009BB995B1916095B99BB190689BB992E04B
:1002D0009A95F1F700C09BB19F779BB9EFE8F1E0E9
:1002E0003197F1F700C000008295807F45B1982FCB
:1002F0009073292F30E035952795359527953595BD
:100300002795942F997F292B25B99BB182958695A6
:10031000869583709C7F892B8BB98BB180688BB954
:10032000F2E0FA95F1F700C08BB18F778BB98FE9C6
:100330009FE00197F1F700C00000089584B1876045
:1003400084B98AB183608AB98AB180688AB98FE337
:100350009CE90197F1F700C0000082E00E94F400E0
:1003600088E20E94F4008CE00E94F40086E00E9483
:10037000F40081E00E94F4008FE99FE00197F1F71B
:1003800000C0000008950F931F93CF93DF938C015B
:10039000C0E0D0E003C00E9449012196F801EC0FB3
:1003A000FD1F80818111F7CFDF91CF911F910F91B8
:1003B000089585B5856085BDE1EBF0E080818560BD
:1003C00080830895FC0180818093B300818188BD82
:1003D000828187BD0E94D90108951F920F920FB6A6
:1003E0000F9211242F933F935F936F937F938F937B
:1003F0009F93AF93BF93EF93FF932BB19091EC0139
:1004000030E2939FC0011124922F9F79892B8BB9E1
:100410008091EC0190E0019663E070E00E94AD02F3
:100420008093EC01E091EC01F0E0E050FF4F80811F
:100430008093B300FF91EF91BF91AF919F918F9106
:100440007F916F915F913F912F910F900FBE0F9011
:100450001F9018951F920F920FB60F9211248F9331
:100460009F93AF93BF938091ED019091EE01A09186
:10047000EF01B091F0010A96A11DB11D8093ED012D
:100480009093EE01A093EF01B093F001BF91AF9173
:100490009F918F910F900FBE0F901F9018950F9303
:1004A0000FB7EF93FF93E0911F02F0912102E395C4
:1004B000EF71EF1305C0F091C100FF7DF093C10013
:1004C000E0931F02F0E0ED5DFD4FE081E093C60098
:1004D000FF91EF910FBF0F9118950F930FB79F9357
:1004E0009091C600EF93FF93E0912202F0912002D9
:1004F000E395EF71FE1731F0E0932202F0E0E15056
:10050000FE4F9083FF91EF919F910FBF0F91189530
:10051000CF93DF93CDB7DEB72E970FB6F894DEBF3B
:100520000FBECDBF8EE0EBE3F1E0DE01119601904E
:100530000D928A95E1F7CE0101960E947B000E9400
:100540009E018CEC91E00E94C30180EC0E94F400BB
:1005500084ED91E00E94C301FFCF97FB072E16F4B4
:10056000009407D077FD09D00E94C10207FC05D096
:100570003EF4909581959F4F0895709561957F4FBA
:100580000895AA1BBB1B51E107C0AA1FBB1FA617DA
:10059000B70710F0A61BB70B881F991F5A95A9F72C
:0E05A00080959095BC01CD010895F894FFCF91
:1005AE0000003249014D015101550159015D019281
:1005BE00016101650169016D017101750179017DAD
:1005CE00018101850189018D019101960161019BD6
:1005DE00019F01A301A701AB01AF0117001800197C
:1005EE00001A000400050006005043360050443047
:1005FE0000504431005044320050443300504434D3
:10060E0000474E44005042360050423700504435A9
:10061E0000504436005044370050423000504231B2
:10062E0000504232005042330050423400504235A6
:10063E00004156434300415245460050433000505E
:10064E004331005043320050433300504334005086
:10065E004335003031310031303100313130004519
:10066E006E7465722076616C7565730057656C6388
:10067E006F6D650047726F757020320052203D20FD
:0C068E000047203D200042203D200000DD
:00000001FF
